{
	"data": {
		"bytecode": {
			"linkReferences": {},
			"object": "608060405260018055600160025534801561001957600080fd5b50610289806100296000396000f3fe608060405234801561001057600080fd5b50600436106100365760003560e01c80632e64cec11461003b57806390a3e3de14610059575b600080fd5b610043610075565b6040516100509190610159565b60405180910390f35b610073600480360381019061006e919061011d565b61007f565b005b6000600354905090565b600181141561009057600180819055505b60028114156100a157600180819055505b60008060008392505b60028311156100ea576001549150600254905080826100c99190610174565b600181905550816002819055506001836100e391906101ca565b92506100aa565b60015460038190555060018081905550600160028190555050505050565b6000813590506101178161023c565b92915050565b60006020828403121561013357610132610237565b5b600061014184828501610108565b91505092915050565b610153816101fe565b82525050565b600060208201905061016e600083018461014a565b92915050565b600061017f826101fe565b915061018a836101fe565b9250827fffffffffffffffffffffffffffffffffffffffffffffffffffffffffffffffff038211156101bf576101be610208565b5b828201905092915050565b60006101d5826101fe565b91506101e0836101fe565b9250828210156101f3576101f2610208565b5b828203905092915050565b6000819050919050565b7f4e487b7100000000000000000000000000000000000000000000000000000000600052601160045260246000fd5b600080fd5b610245816101fe565b811461025057600080fd5b5056fea26469706673582212206ff29a78d57af60ff7993d0a269b7f204a9c87f7c6475aaacdaa07c214e09d0d64736f6c63430008070033",
			"opcodes": "PUSH1 0x80 PUSH1 0x40 MSTORE PUSH1 0x1 DUP1 SSTORE PUSH1 0x1 PUSH1 0x2 SSTORE CALLVALUE DUP1 ISZERO PUSH2 0x19 JUMPI PUSH1 0x0 DUP1 REVERT JUMPDEST POP PUSH2 0x289 DUP1 PUSH2 0x29 PUSH1 0x0 CODECOPY PUSH1 0x0 RETURN INVALID PUSH1 0x80 PUSH1 0x40 MSTORE CALLVALUE DUP1 ISZERO PUSH2 0x10 JUMPI PUSH1 0x0 DUP1 REVERT JUMPDEST POP PUSH1 0x4 CALLDATASIZE LT PUSH2 0x36 JUMPI PUSH1 0x0 CALLDATALOAD PUSH1 0xE0 SHR DUP1 PUSH4 0x2E64CEC1 EQ PUSH2 0x3B JUMPI DUP1 PUSH4 0x90A3E3DE EQ PUSH2 0x59 JUMPI JUMPDEST PUSH1 0x0 DUP1 REVERT JUMPDEST PUSH2 0x43 PUSH2 0x75 JUMP JUMPDEST PUSH1 0x40 MLOAD PUSH2 0x50 SWAP2 SWAP1 PUSH2 0x159 JUMP JUMPDEST PUSH1 0x40 MLOAD DUP1 SWAP2 SUB SWAP1 RETURN JUMPDEST PUSH2 0x73 PUSH1 0x4 DUP1 CALLDATASIZE SUB DUP2 ADD SWAP1 PUSH2 0x6E SWAP2 SWAP1 PUSH2 0x11D JUMP JUMPDEST PUSH2 0x7F JUMP JUMPDEST STOP JUMPDEST PUSH1 0x0 PUSH1 0x3 SLOAD SWAP1 POP SWAP1 JUMP JUMPDEST PUSH1 0x1 DUP2 EQ ISZERO PUSH2 0x90 JUMPI PUSH1 0x1 DUP1 DUP2 SWAP1 SSTORE POP JUMPDEST PUSH1 0x2 DUP2 EQ ISZERO PUSH2 0xA1 JUMPI PUSH1 0x1 DUP1 DUP2 SWAP1 SSTORE POP JUMPDEST PUSH1 0x0 DUP1 PUSH1 0x0 DUP4 SWAP3 POP JUMPDEST PUSH1 0x2 DUP4 GT ISZERO PUSH2 0xEA JUMPI PUSH1 0x1 SLOAD SWAP2 POP PUSH1 0x2 SLOAD SWAP1 POP DUP1 DUP3 PUSH2 0xC9 SWAP2 SWAP1 PUSH2 0x174 JUMP JUMPDEST PUSH1 0x1 DUP2 SWAP1 SSTORE POP DUP2 PUSH1 0x2 DUP2 SWAP1 SSTORE POP PUSH1 0x1 DUP4 PUSH2 0xE3 SWAP2 SWAP1 PUSH2 0x1CA JUMP JUMPDEST SWAP3 POP PUSH2 0xAA JUMP JUMPDEST PUSH1 0x1 SLOAD PUSH1 0x3 DUP2 SWAP1 SSTORE POP PUSH1 0x1 DUP1 DUP2 SWAP1 SSTORE POP PUSH1 0x1 PUSH1 0x2 DUP2 SWAP1 SSTORE POP POP POP POP POP JUMP JUMPDEST PUSH1 0x0 DUP2 CALLDATALOAD SWAP1 POP PUSH2 0x117 DUP2 PUSH2 0x23C JUMP JUMPDEST SWAP3 SWAP2 POP POP JUMP JUMPDEST PUSH1 0x0 PUSH1 0x20 DUP3 DUP5 SUB SLT ISZERO PUSH2 0x133 JUMPI PUSH2 0x132 PUSH2 0x237 JUMP JUMPDEST JUMPDEST PUSH1 0x0 PUSH2 0x141 DUP5 DUP3 DUP6 ADD PUSH2 0x108 JUMP JUMPDEST SWAP2 POP POP SWAP3 SWAP2 POP POP JUMP JUMPDEST PUSH2 0x153 DUP2 PUSH2 0x1FE JUMP JUMPDEST DUP3 MSTORE POP POP JUMP JUMPDEST PUSH1 0x0 PUSH1 0x20 DUP3 ADD SWAP1 POP PUSH2 0x16E PUSH1 0x0 DUP4 ADD DUP5 PUSH2 0x14A JUMP JUMPDEST SWAP3 SWAP2 POP POP JUMP JUMPDEST PUSH1 0x0 PUSH2 0x17F DUP3 PUSH2 0x1FE JUMP JUMPDEST SWAP2 POP PUSH2 0x18A DUP4 PUSH2 0x1FE JUMP JUMPDEST SWAP3 POP DUP3 PUSH32 0xFFFFFFFFFFFFFFFFFFFFFFFFFFFFFFFFFFFFFFFFFFFFFFFFFFFFFFFFFFFFFFFF SUB DUP3 GT ISZERO PUSH2 0x1BF JUMPI PUSH2 0x1BE PUSH2 0x208 JUMP JUMPDEST JUMPDEST DUP3 DUP3 ADD SWAP1 POP SWAP3 SWAP2 POP POP JUMP JUMPDEST PUSH1 0x0 PUSH2 0x1D5 DUP3 PUSH2 0x1FE JUMP JUMPDEST SWAP2 POP PUSH2 0x1E0 DUP4 PUSH2 0x1FE JUMP JUMPDEST SWAP3 POP DUP3 DUP3 LT ISZERO PUSH2 0x1F3 JUMPI PUSH2 0x1F2 PUSH2 0x208 JUMP JUMPDEST JUMPDEST DUP3 DUP3 SUB SWAP1 POP SWAP3 SWAP2 POP POP JUMP JUMPDEST PUSH1 0x0 DUP2 SWAP1 POP SWAP2 SWAP1 POP JUMP JUMPDEST PUSH32 0x4E487B7100000000000000000000000000000000000000000000000000000000 PUSH1 0x0 MSTORE PUSH1 0x11 PUSH1 0x4 MSTORE PUSH1 0x24 PUSH1 0x0 REVERT JUMPDEST PUSH1 0x0 DUP1 REVERT JUMPDEST PUSH2 0x245 DUP2 PUSH2 0x1FE JUMP JUMPDEST DUP2 EQ PUSH2 0x250 JUMPI PUSH1 0x0 DUP1 REVERT JUMPDEST POP JUMP INVALID LOG2 PUSH5 0x6970667358 0x22 SLT KECCAK256 PUSH16 0xF29A78D57AF60FF7993D0A269B7F204A SWAP13 DUP8 0xF7 0xC6 SELFBALANCE GAS 0xAA 0xCD 0xAA SMOD 0xC2 EQ 0xE0 SWAP14 0xD PUSH5 0x736F6C6343 STOP ADDMOD SMOD STOP CALLER "
		},
		"gasEstimates": {
			"creation": {
				"codeDepositCost": "129800",
				"executionCost": "44389",
				"totalCost": "174189"
			},
			"external": {
				"getFib(uint256)": "infinite",
				"retrieve()": "2415"
			}
		},
		"methodIdentifiers": {
			"getFib(uint256)": "90a3e3de",
			"retrieve()": "2e64cec1"
		}
	},
	"abi": [
		{
			"inputs": [
				{
					"internalType": "uint256",
					"name": "num",
					"type": "uint256"
				}
			],
			"name": "getFib",
			"outputs": [],
			"stateMutability": "nonpayable",
			"type": "function"
		},
		{
			"inputs": [],
			"name": "retrieve",
			"outputs": [
				{
					"internalType": "uint256",
					"name": "",
					"type": "uint256"
				}
			],
			"stateMutability": "view",
			"type": "function"
		}
	]
}